{
  "_format": "hh-sol-artifact-1",
  "contractName": "Lockup",
  "sourceName": "contracts/Lockup.sol",
  "abi": [
    {
      "inputs": [
        {
          "internalType": "address payable",
          "name": "_foilWallet",
          "type": "address"
        },
        {
          "internalType": "address",
          "name": "_usdt",
          "type": "address"
        }
      ],
      "stateMutability": "nonpayable",
      "type": "constructor"
    },
    {
      "anonymous": false,
      "inputs": [
        {
          "indexed": false,
          "internalType": "address",
          "name": "userAddress",
          "type": "address"
        },
        {
          "indexed": true,
          "internalType": "uint256",
          "name": "side",
          "type": "uint256"
        },
        {
          "indexed": false,
          "internalType": "uint256",
          "name": "amount",
          "type": "uint256"
        }
      ],
      "name": "Deposit",
      "type": "event"
    },
    {
      "anonymous": false,
      "inputs": [
        {
          "indexed": false,
          "internalType": "uint256",
          "name": "amountAfterPercent",
          "type": "uint256"
        }
      ],
      "name": "Withdraw",
      "type": "event"
    },
    {
      "inputs": [
        {
          "internalType": "uint256",
          "name": "amount",
          "type": "uint256"
        },
        {
          "internalType": "uint256",
          "name": "side",
          "type": "uint256"
        }
      ],
      "name": "deposit",
      "outputs": [
        {
          "internalType": "bool",
          "name": "",
          "type": "bool"
        }
      ],
      "stateMutability": "payable",
      "type": "function"
    },
    {
      "inputs": [
        {
          "internalType": "address",
          "name": "",
          "type": "address"
        },
        {
          "internalType": "uint256",
          "name": "",
          "type": "uint256"
        }
      ],
      "name": "deposites",
      "outputs": [
        {
          "internalType": "uint256",
          "name": "",
          "type": "uint256"
        }
      ],
      "stateMutability": "view",
      "type": "function"
    },
    {
      "inputs": [],
      "name": "getBalance",
      "outputs": [
        {
          "internalType": "uint256",
          "name": "",
          "type": "uint256"
        }
      ],
      "stateMutability": "view",
      "type": "function"
    },
    {
      "inputs": [],
      "name": "usdt",
      "outputs": [
        {
          "internalType": "contract IERC20",
          "name": "",
          "type": "address"
        }
      ],
      "stateMutability": "view",
      "type": "function"
    },
    {
      "inputs": [
        {
          "internalType": "uint256",
          "name": "percentage",
          "type": "uint256"
        },
        {
          "internalType": "uint256",
          "name": "side",
          "type": "uint256"
        }
      ],
      "name": "withdraw",
      "outputs": [],
      "stateMutability": "nonpayable",
      "type": "function"
    },
    {
      "stateMutability": "payable",
      "type": "receive"
    }
  ],
  "bytecode": "0x60806040523480156200001157600080fd5b5060405162000cb938038062000cb98339818101604052810190620000379190620001d4565b600073ffffffffffffffffffffffffffffffffffffffff168273ffffffffffffffffffffffffffffffffffffffff161415620000aa576040517f08c379a0000000000000000000000000000000000000000000000000000000008152600401620000a1906200028b565b60405180910390fd5b600073ffffffffffffffffffffffffffffffffffffffff168173ffffffffffffffffffffffffffffffffffffffff1614156200011d576040517f08c379a0000000000000000000000000000000000000000000000000000000008152600401620001149062000269565b60405180910390fd5b816000806101000a81548173ffffffffffffffffffffffffffffffffffffffff021916908373ffffffffffffffffffffffffffffffffffffffff16021790555080600260006101000a81548173ffffffffffffffffffffffffffffffffffffffff021916908373ffffffffffffffffffffffffffffffffffffffff160217905550505062000391565b600081519050620001b7816200035d565b92915050565b600081519050620001ce8162000377565b92915050565b60008060408385031215620001ee57620001ed62000306565b5b6000620001fe85828601620001bd565b92505060206200021185828601620001a6565b9150509250929050565b60006200022a601e83620002ad565b915062000237826200030b565b602082019050919050565b600062000251602083620002ad565b91506200025e8262000334565b602082019050919050565b6000602082019050818103600083015262000284816200021b565b9050919050565b60006020820190508181036000830152620002a68162000242565b9050919050565b600082825260208201905092915050565b6000620002cb82620002e6565b9050919050565b6000620002df82620002e6565b9050919050565b600073ffffffffffffffffffffffffffffffffffffffff82169050919050565b600080fd5b7f546865205553445420616464726573732063616e206e6f74207a65726f2e0000600082015250565b7f5468652077616c6c657420616464726573732063616e206e6f74207a65726f2e600082015250565b6200036881620002be565b81146200037457600080fd5b50565b6200038281620002d2565b81146200038e57600080fd5b50565b61091880620003a16000396000f3fe60806040526004361061004e5760003560e01c806312065fe01461005a5780632f48ab7d14610085578063441a3e70146100b0578063e2bbb158146100d9578063f8fb58ce1461010957610055565b3661005557005b600080fd5b34801561006657600080fd5b5061006f610146565b60405161007c9190610749565b60405180910390f35b34801561009157600080fd5b5061009a61014e565b6040516100a791906106ee565b60405180910390f35b3480156100bc57600080fd5b506100d760048036038101906100d291906105b0565b610174565b005b6100f360048036038101906100ee91906105b0565b6103e6565b60405161010091906106d3565b60405180910390f35b34801561011557600080fd5b50610130600480360381019061012b9190610543565b6104df565b60405161013d9190610749565b60405180910390f35b600047905090565b600260009054906101000a900473ffffffffffffffffffffffffffffffffffffffff1681565b6000600160003373ffffffffffffffffffffffffffffffffffffffff1673ffffffffffffffffffffffffffffffffffffffff16815260200190815260200160002060008381526020019081526020016000205490506000811161020c576040517f08c379a000000000000000000000000000000000000000000000000000000000815260040161020390610709565b60405180910390fd5b60006127108483028161022257610221610817565b5b049050600183141561034157600260009054906101000a900473ffffffffffffffffffffffffffffffffffffffff1673ffffffffffffffffffffffffffffffffffffffff1663a9059cbb60008054906101000a900473ffffffffffffffffffffffffffffffffffffffff16836040518363ffffffff1660e01b81526004016102ab929190610681565b602060405180830381600087803b1580156102c557600080fd5b505af11580156102d9573d6000803e3d6000fd5b505050506040513d601f19601f820116820180604052508101906102fd9190610583565b61033c576040517f08c379a000000000000000000000000000000000000000000000000000000000815260040161033390610729565b60405180910390fd5b6103a9565b60008054906101000a900473ffffffffffffffffffffffffffffffffffffffff1673ffffffffffffffffffffffffffffffffffffffff166108fc829081150290604051600060405180830381858888f193505050501580156103a7573d6000803e3d6000fd5b505b7f5b6b431d4476a211bb7d41c20d1aab9ae2321deee0d20be3d9fc9b1093fa6e3d816040516103d89190610749565b60405180910390a150505050565b60008234146103f457600080fd5b82600160003373ffffffffffffffffffffffffffffffffffffffff1673ffffffffffffffffffffffffffffffffffffffff16815260200190815260200160002060008481526020019081526020016000205401600160003373ffffffffffffffffffffffffffffffffffffffff1673ffffffffffffffffffffffffffffffffffffffff168152602001908152602001600020600084815260200190815260200160002081905550817f90890809c654f11d6e72a28fa60149770a0d11ec6c92319d6ceb2bb0a4ea1a1533856040516104cd9291906106aa565b60405180910390a26001905092915050565b6001602052816000526040600020602052806000526040600020600091509150505481565b6000813590506105138161089d565b92915050565b600081519050610528816108b4565b92915050565b60008135905061053d816108cb565b92915050565b6000806040838503121561055a57610559610846565b5b600061056885828601610504565b92505060206105798582860161052e565b9150509250929050565b60006020828403121561059957610598610846565b5b60006105a784828501610519565b91505092915050565b600080604083850312156105c7576105c6610846565b5b60006105d58582860161052e565b92505060206105e68582860161052e565b9150509250929050565b6105f9816107bd565b82525050565b61060881610775565b82525050565b61061781610787565b82525050565b610626816107cf565b82525050565b6000610639601083610764565b91506106448261084b565b602082019050919050565b600061065c600d83610764565b915061066782610874565b602082019050919050565b61067b816107b3565b82525050565b600060408201905061069660008301856105f0565b6106a36020830184610672565b9392505050565b60006040820190506106bf60008301856105ff565b6106cc6020830184610672565b9392505050565b60006020820190506106e8600083018461060e565b92915050565b6000602082019050610703600083018461061d565b92915050565b600060208201905081810360008301526107228161062c565b9050919050565b600060208201905081810360008301526107428161064f565b9050919050565b600060208201905061075e6000830184610672565b92915050565b600082825260208201905092915050565b600061078082610793565b9050919050565b60008115159050919050565b600073ffffffffffffffffffffffffffffffffffffffff82169050919050565b6000819050919050565b60006107c8826107f3565b9050919050565b60006107da826107e1565b9050919050565b60006107ec82610793565b9050919050565b60006107fe82610805565b9050919050565b600061081082610793565b9050919050565b7f4e487b7100000000000000000000000000000000000000000000000000000000600052601260045260246000fd5b600080fd5b7f43616e206e6f7420776974686472617700000000000000000000000000000000600082015250565b7f496e73756666696369656e742100000000000000000000000000000000000000600082015250565b6108a681610775565b81146108b157600080fd5b50565b6108bd81610787565b81146108c857600080fd5b50565b6108d4816107b3565b81146108df57600080fd5b5056fea26469706673582212206449b1808384bb85d282823b3183d1747c6d758f379f408f3a9e9124cc7ff60864736f6c63430008060033",
  "linkReferences": {},
  "deployedLinkReferences": {}
}