{
  "_format": "hh-sol-artifact-1",
  "contractName": "FoilSeedContract",
  "sourceName": "contracts/FoilSeedContract.sol",
  "abi": [
    {
      "inputs": [
        {
          "internalType": "address",
          "name": "_foilTokenAddress",
          "type": "address"
        },
        {
          "internalType": "contract Lockup",
          "name": "_lockUp",
          "type": "address"
        }
      ],
      "stateMutability": "nonpayable",
      "type": "constructor"
    },
    {
      "anonymous": false,
      "inputs": [
        {
          "indexed": false,
          "internalType": "address",
          "name": "receipient",
          "type": "address"
        },
        {
          "indexed": false,
          "internalType": "enum FoilSeedContract.Side",
          "name": "side",
          "type": "uint8"
        }
      ],
      "name": "BuyFoilToken",
      "type": "event"
    },
    {
      "anonymous": false,
      "inputs": [
        {
          "indexed": false,
          "internalType": "address",
          "name": "receipient",
          "type": "address"
        },
        {
          "indexed": false,
          "internalType": "uint256",
          "name": "pendingToken",
          "type": "uint256"
        },
        {
          "indexed": false,
          "internalType": "uint256",
          "name": "pendingPercentage",
          "type": "uint256"
        }
      ],
      "name": "ClaimTokens",
      "type": "event"
    },
    {
      "anonymous": false,
      "inputs": [
        {
          "indexed": false,
          "internalType": "uint256",
          "name": "finalizedTime",
          "type": "uint256"
        }
      ],
      "name": "Finalize",
      "type": "event"
    },
    {
      "anonymous": false,
      "inputs": [
        {
          "indexed": false,
          "internalType": "uint256",
          "name": "limit",
          "type": "uint256"
        }
      ],
      "name": "MaxBuyLimt",
      "type": "event"
    },
    {
      "anonymous": false,
      "inputs": [
        {
          "indexed": true,
          "internalType": "address",
          "name": "previousOwner",
          "type": "address"
        },
        {
          "indexed": true,
          "internalType": "address",
          "name": "newOwner",
          "type": "address"
        }
      ],
      "name": "OwnershipTransferred",
      "type": "event"
    },
    {
      "anonymous": false,
      "inputs": [
        {
          "indexed": false,
          "internalType": "address",
          "name": "userAddress",
          "type": "address"
        },
        {
          "indexed": false,
          "internalType": "uint256",
          "name": "quota",
          "type": "uint256"
        }
      ],
      "name": "WhiteList",
      "type": "event"
    },
    {
      "inputs": [],
      "name": "MONTH",
      "outputs": [
        {
          "internalType": "uint256",
          "name": "",
          "type": "uint256"
        }
      ],
      "stateMutability": "view",
      "type": "function"
    },
    {
      "inputs": [],
      "name": "PRICE_RATE",
      "outputs": [
        {
          "internalType": "uint256",
          "name": "",
          "type": "uint256"
        }
      ],
      "stateMutability": "view",
      "type": "function"
    },
    {
      "inputs": [],
      "name": "PRICE_RATE_USDT",
      "outputs": [
        {
          "internalType": "uint256",
          "name": "",
          "type": "uint256"
        }
      ],
      "stateMutability": "view",
      "type": "function"
    },
    {
      "inputs": [
        {
          "internalType": "address",
          "name": "userAddress",
          "type": "address"
        },
        {
          "internalType": "uint256",
          "name": "quota",
          "type": "uint256"
        }
      ],
      "name": "addWhiteListUser",
      "outputs": [],
      "stateMutability": "nonpayable",
      "type": "function"
    },
    {
      "inputs": [
        {
          "internalType": "address[]",
          "name": "userAddresses",
          "type": "address[]"
        },
        {
          "internalType": "uint256[]",
          "name": "quota",
          "type": "uint256[]"
        }
      ],
      "name": "addWhiteListUsers",
      "outputs": [],
      "stateMutability": "nonpayable",
      "type": "function"
    },
    {
      "inputs": [
        {
          "internalType": "address",
          "name": "receipient",
          "type": "address"
        },
        {
          "internalType": "enum FoilSeedContract.Side",
          "name": "side",
          "type": "uint8"
        }
      ],
      "name": "buyFoilToken",
      "outputs": [],
      "stateMutability": "nonpayable",
      "type": "function"
    },
    {
      "inputs": [
        {
          "internalType": "address",
          "name": "receipient",
          "type": "address"
        },
        {
          "internalType": "enum FoilSeedContract.Side",
          "name": "side",
          "type": "uint8"
        }
      ],
      "name": "claimTokens",
      "outputs": [],
      "stateMutability": "nonpayable",
      "type": "function"
    },
    {
      "inputs": [],
      "name": "finalize",
      "outputs": [],
      "stateMutability": "nonpayable",
      "type": "function"
    },
    {
      "inputs": [],
      "name": "finalizedTime",
      "outputs": [
        {
          "internalType": "uint256",
          "name": "",
          "type": "uint256"
        }
      ],
      "stateMutability": "view",
      "type": "function"
    },
    {
      "inputs": [],
      "name": "foilToken",
      "outputs": [
        {
          "internalType": "contract IERC20",
          "name": "",
          "type": "address"
        }
      ],
      "stateMutability": "view",
      "type": "function"
    },
    {
      "inputs": [
        {
          "internalType": "address",
          "name": "_userAddress",
          "type": "address"
        }
      ],
      "name": "getPendingToken",
      "outputs": [
        {
          "internalType": "uint256",
          "name": "canExtract",
          "type": "uint256"
        },
        {
          "internalType": "uint256",
          "name": "percentage",
          "type": "uint256"
        }
      ],
      "stateMutability": "view",
      "type": "function"
    },
    {
      "inputs": [],
      "name": "getSeedSupply",
      "outputs": [
        {
          "internalType": "uint256",
          "name": "",
          "type": "uint256"
        }
      ],
      "stateMutability": "view",
      "type": "function"
    },
    {
      "inputs": [],
      "name": "getTime",
      "outputs": [
        {
          "internalType": "uint256",
          "name": "",
          "type": "uint256"
        }
      ],
      "stateMutability": "view",
      "type": "function"
    },
    {
      "inputs": [
        {
          "internalType": "address",
          "name": "userAddress",
          "type": "address"
        }
      ],
      "name": "getWhitelistedAmount",
      "outputs": [
        {
          "internalType": "uint256",
          "name": "",
          "type": "uint256"
        }
      ],
      "stateMutability": "view",
      "type": "function"
    },
    {
      "inputs": [],
      "name": "halted",
      "outputs": [
        {
          "internalType": "bool",
          "name": "",
          "type": "bool"
        }
      ],
      "stateMutability": "view",
      "type": "function"
    },
    {
      "inputs": [
        {
          "internalType": "address",
          "name": "userAddress",
          "type": "address"
        }
      ],
      "name": "isWhitelisted",
      "outputs": [
        {
          "internalType": "bool",
          "name": "isIndeed",
          "type": "bool"
        }
      ],
      "stateMutability": "view",
      "type": "function"
    },
    {
      "inputs": [],
      "name": "lockUp",
      "outputs": [
        {
          "internalType": "contract Lockup",
          "name": "",
          "type": "address"
        }
      ],
      "stateMutability": "view",
      "type": "function"
    },
    {
      "inputs": [],
      "name": "maxBuyLimit",
      "outputs": [
        {
          "internalType": "uint256",
          "name": "",
          "type": "uint256"
        }
      ],
      "stateMutability": "view",
      "type": "function"
    },
    {
      "inputs": [],
      "name": "openSoldTokens",
      "outputs": [
        {
          "internalType": "uint256",
          "name": "",
          "type": "uint256"
        }
      ],
      "stateMutability": "view",
      "type": "function"
    },
    {
      "inputs": [
        {
          "internalType": "address",
          "name": "",
          "type": "address"
        }
      ],
      "name": "openWhiteListedTokens",
      "outputs": [
        {
          "internalType": "uint256",
          "name": "",
          "type": "uint256"
        }
      ],
      "stateMutability": "view",
      "type": "function"
    },
    {
      "inputs": [],
      "name": "owner",
      "outputs": [
        {
          "internalType": "address",
          "name": "",
          "type": "address"
        }
      ],
      "stateMutability": "view",
      "type": "function"
    },
    {
      "inputs": [
        {
          "internalType": "uint256",
          "name": "limit",
          "type": "uint256"
        }
      ],
      "name": "setMaxBuyLimit",
      "outputs": [],
      "stateMutability": "nonpayable",
      "type": "function"
    },
    {
      "inputs": [
        {
          "internalType": "address",
          "name": "newOwner",
          "type": "address"
        }
      ],
      "name": "transferOwnership",
      "outputs": [],
      "stateMutability": "nonpayable",
      "type": "function"
    }
  ],
  "bytecode": "0x60806040526802b5e3af16b18800006008553480156200001e57600080fd5b5060405162002a4838038062002a488339818101604052810190620000449190620001af565b336000806101000a81548173ffffffffffffffffffffffffffffffffffffffff021916908373ffffffffffffffffffffffffffffffffffffffff160217905550600073ffffffffffffffffffffffffffffffffffffffff168273ffffffffffffffffffffffffffffffffffffffff161415620000f7576040517f08c379a0000000000000000000000000000000000000000000000000000000008152600401620000ee906200021d565b60405180910390fd5b81600360006101000a81548173ffffffffffffffffffffffffffffffffffffffff021916908373ffffffffffffffffffffffffffffffffffffffff16021790555080600460006101000a81548173ffffffffffffffffffffffffffffffffffffffff021916908373ffffffffffffffffffffffffffffffffffffffff160217905550505062000334565b600081519050620001928162000300565b92915050565b600081519050620001a9816200031a565b92915050565b60008060408385031215620001c957620001c8620002ac565b5b6000620001d98582860162000181565b9250506020620001ec8582860162000198565b9150509250929050565b6000620002056021836200023f565b91506200021282620002b1565b604082019050919050565b600060208201905081810360008301526200023881620001f6565b9050919050565b600082825260208201905092915050565b60006200025d826200028c565b9050919050565b600062000271826200028c565b9050919050565b6000620002858262000264565b9050919050565b600073ffffffffffffffffffffffffffffffffffffffff82169050919050565b600080fd5b7f54686520746f6b656e20616464726573732063616e206e6f74206265207a657260008201527f6f00000000000000000000000000000000000000000000000000000000000000602082015250565b6200030b8162000250565b81146200031757600080fd5b50565b620003258162000278565b81146200033157600080fd5b50565b61270480620003446000396000f3fe608060405234801561001057600080fd5b506004361061014d5760003560e01c80636cdbbb58116100c3578063b9b8af0b1161007c578063b9b8af0b1461037b578063d5999a5c14610399578063daa6ea20146103b7578063f2fde38b146103d5578063f8313343146103f1578063fe67a1891461040f5761014d565b80636cdbbb58146102a6578063757765f8146102d657806378ad411d146102f25780638da5cb5b146103235780639ee3ed9414610341578063b2450b151461035d5761014d565b80634fecfbda116101155780634fecfbda146101f85780635328d2a814610214578063557ed1ba146102305780635fb894571461024e5780636aa5b37f1461026c5780636ae7ba2e1461028a5761014d565b80633af32abf146101525780633c7d8602146101825780633d69229a146101b25780633f4347c5146101d05780634bb278f3146101ee575b600080fd5b61016c60048036038101906101679190611d00565b61042d565b6040516101799190612054565b60405180910390f35b61019c60048036038101906101979190611d00565b6104fc565b6040516101a99190612125565b60405180910390f35b6101ba610566565b6040516101c79190612125565b60405180910390f35b6101d861056c565b6040516101e5919061206f565b60405180910390f35b6101f6610592565b005b610212600480360381019061020d9190611d2d565b61062c565b005b61022e60048036038101906102299190611dad565b6106e6565b005b6102386107a0565b6040516102459190612125565b60405180910390f35b6102566107a8565b6040516102639190612125565b60405180910390f35b6102746107ad565b6040516102819190612125565b60405180910390f35b6102a4600480360381019061029f9190611d2d565b6107b3565b005b6102c060048036038101906102bb9190611d00565b610bba565b6040516102cd9190612125565b60405180910390f35b6102f060048036038101906102eb9190611e52565b610bd2565b005b61030c60048036038101906103079190611d00565b610c6b565b60405161031a929190612192565b60405180910390f35b61032b611312565b6040516103389190611fb0565b60405180910390f35b61035b60048036038101906103569190611d6d565b611336565b005b6103656114db565b6040516103729190612125565b60405180910390f35b6103836114e1565b6040516103909190612054565b60405180910390f35b6103a16114e6565b6040516103ae9190612125565b60405180910390f35b6103bf6114ed565b6040516103cc9190612125565b60405180910390f35b6103ef60048036038101906103ea9190611d00565b61159f565b005b6103f96116ee565b604051610406919061208a565b60405180910390f35b610417611714565b6040516104249190612125565b60405180910390f35b600080600780549050141561044557600090506104f7565b8173ffffffffffffffffffffffffffffffffffffffff166007600660008573ffffffffffffffffffffffffffffffffffffffff1673ffffffffffffffffffffffffffffffffffffffff16815260200190815260200160002060010154815481106104b2576104b161253e565b5b9060005260206000200160009054906101000a900473ffffffffffffffffffffffffffffffffffffffff1673ffffffffffffffffffffffffffffffffffffffff161490505b919050565b60006105078261042d565b1561055c576000600660008473ffffffffffffffffffffffffffffffffffffffff1673ffffffffffffffffffffffffffffffffffffffff16815260200190815260200160002060000154905080915050610561565b600090505b919050565b61c35081565b600360009054906101000a900473ffffffffffffffffffffffffffffffffffffffff1681565b60008054906101000a900473ffffffffffffffffffffffffffffffffffffffff1673ffffffffffffffffffffffffffffffffffffffff163373ffffffffffffffffffffffffffffffffffffffff16146105ea57600080fd5b436001819055507f5ab25e4916e9bcbaf83240dae72af1ebdcbe16d0bf417681ecbadab3ce031b966001546040516106229190612125565b60405180910390a1565b6106346114ed565b6002541061064157600080fd5b600073ffffffffffffffffffffffffffffffffffffffff168273ffffffffffffffffffffffffffffffffffffffff16141561067b57600080fd5b6106848261042d565b61068d57600080fd5b64170cdc1e003a111561069f57600080fd5b6106a9828261171a565b7f585e9af525f0c529f16a5cadcf321307553832f4ee87559e631efd551e75b40982826040516106da929190611fcb565b60405180910390a15050565b60008054906101000a900473ffffffffffffffffffffffffffffffffffffffff1673ffffffffffffffffffffffffffffffffffffffff163373ffffffffffffffffffffffffffffffffffffffff161461073e57600080fd5b60005b825181101561079b576107888382815181106107605761075f61253e565b5b602002602001015183838151811061077b5761077a61253e565b5b6020026020010151611336565b808061079390612468565b915050610741565b505050565b600043905090565b601481565b60085481565b6107bb6114ed565b60025410156107c957600080fd5b6000806107d584610c6b565b809250819350505081600360009054906101000a900473ffffffffffffffffffffffffffffffffffffffff1673ffffffffffffffffffffffffffffffffffffffff166370a08231306040518263ffffffff1660e01b81526004016108399190611fb0565b60206040518083038186803b15801561085157600080fd5b505afa158015610865573d6000803e3d6000fd5b505050506040513d601f19601f820116820180604052508101906108899190611e7f565b505081600360009054906101000a900473ffffffffffffffffffffffffffffffffffffffff1673ffffffffffffffffffffffffffffffffffffffff166370a08231866040518263ffffffff1660e01b81526004016108e79190611fb0565b60206040518083038186803b1580156108ff57600080fd5b505afa158015610913573d6000803e3d6000fd5b505050506040513d601f19601f820116820180604052508101906109379190611e7f565b5050600360009054906101000a900473ffffffffffffffffffffffffffffffffffffffff1673ffffffffffffffffffffffffffffffffffffffff1663a9059cbb85846040518363ffffffff1660e01b8152600401610996929190611ff4565b602060405180830381600087803b1580156109b057600080fd5b505af11580156109c4573d6000803e3d6000fd5b505050506040513d601f19601f820116820180604052508101906109e89190611e25565b610a27576040517f08c379a0000000000000000000000000000000000000000000000000000000008152600401610a1e906120c5565b60405180910390fd5b600180811115610a3a57610a3961250f565b5b836001811115610a4d57610a4c61250f565b5b1415610ae857600460009054906101000a900473ffffffffffffffffffffffffffffffffffffffff1673ffffffffffffffffffffffffffffffffffffffff1663441a3e708260016040518363ffffffff1660e01b8152600401610ab1929190612169565b600060405180830381600087803b158015610acb57600080fd5b505af1158015610adf573d6000803e3d6000fd5b50505050610b79565b600460009054906101000a900473ffffffffffffffffffffffffffffffffffffffff1673ffffffffffffffffffffffffffffffffffffffff1663441a3e708260006040518363ffffffff1660e01b8152600401610b46929190612140565b600060405180830381600087803b158015610b6057600080fd5b505af1158015610b74573d6000803e3d6000fd5b505050505b7f5b647b01e17159c2bbd13f8fbeae19db9f87496617c7efbe0bf87bb1e684afca848383604051610bac9392919061201d565b60405180910390a150505050565b60056020528060005260406000206000915090505481565b60008054906101000a900473ffffffffffffffffffffffffffffffffffffffff1673ffffffffffffffffffffffffffffffffffffffff163373ffffffffffffffffffffffffffffffffffffffff1614610c2a57600080fd5b806008819055507fb7bb0180d59e45fcdb765d1ab3065cb17ba64626c5333e27230bc2e071e7bca881604051610c609190612125565b60405180910390a150565b600080600060025411610cb3576040517f08c379a0000000000000000000000000000000000000000000000000000000008152600401610caa906120e5565b60405180910390fd5b6000915060009050610cc560026117f4565b600154610cd29190612249565b610cda6107a0565b11610d5457610cf1610cea6114ed565b601461180c565b60025410610cfe57600080fd5b610d48600560008573ffffffffffffffffffffffffffffffffffffffff1673ffffffffffffffffffffffffffffffffffffffff16815260200190815260200160002054601461180c565b91506107d0905061130d565b610d5e60026117f4565b600154610d6b9190612249565b610d736107a0565b118015610d9d5750610d8560036117f4565b600154610d929190612249565b610d9a6107a0565b11155b15610e1757610db4610dad6114ed565b601e61180c565b60025410610dc157600080fd5b610e0b600560008573ffffffffffffffffffffffffffffffffffffffff1673ffffffffffffffffffffffffffffffffffffffff16815260200190815260200160002054601e61180c565b91506103e8905061130c565b610e2160036117f4565b600154610e2e9190612249565b610e366107a0565b118015610e605750610e4860046117f4565b600154610e559190612249565b610e5d6107a0565b11155b15610eda57610e77610e706114ed565b602861180c565b60025410610e8457600080fd5b610ece600560008573ffffffffffffffffffffffffffffffffffffffff1673ffffffffffffffffffffffffffffffffffffffff16815260200190815260200160002054602861180c565b91506103e8905061130b565b610ee460046117f4565b600154610ef19190612249565b610ef96107a0565b118015610f235750610f0b60056117f4565b600154610f189190612249565b610f206107a0565b11155b15610f9d57610f3a610f336114ed565b603261180c565b60025410610f4757600080fd5b610f91600560008573ffffffffffffffffffffffffffffffffffffffff1673ffffffffffffffffffffffffffffffffffffffff16815260200190815260200160002054603261180c565b91506103e8905061130a565b610fa760056117f4565b600154610fb49190612249565b610fbc6107a0565b118015610fe65750610fce60066117f4565b600154610fdb9190612249565b610fe36107a0565b11155b1561106057610ffd610ff66114ed565b603c61180c565b6002541061100a57600080fd5b611054600560008573ffffffffffffffffffffffffffffffffffffffff1673ffffffffffffffffffffffffffffffffffffffff16815260200190815260200160002054603c61180c565b91506103e89050611309565b61106a60066117f4565b6001546110779190612249565b61107f6107a0565b1180156110a9575061109160076117f4565b60015461109e9190612249565b6110a66107a0565b11155b15611123576110c06110b96114ed565b604661180c565b600254106110cd57600080fd5b611117600560008573ffffffffffffffffffffffffffffffffffffffff1673ffffffffffffffffffffffffffffffffffffffff16815260200190815260200160002054604661180c565b91506103e89050611308565b61112d60076117f4565b60015461113a9190612249565b6111426107a0565b11801561116c575061115460086117f4565b6001546111619190612249565b6111696107a0565b11155b156111e65761118361117c6114ed565b605061180c565b6002541061119057600080fd5b6111da600560008573ffffffffffffffffffffffffffffffffffffffff1673ffffffffffffffffffffffffffffffffffffffff16815260200190815260200160002054605061180c565b91506103e89050611307565b6111f060086117f4565b6001546111fd9190612249565b6112056107a0565b11801561122f575061121760096117f4565b6001546112249190612249565b61122c6107a0565b11155b156112a95761124661123f6114ed565b605a61180c565b6002541061125357600080fd5b61129d600560008573ffffffffffffffffffffffffffffffffffffffff1673ffffffffffffffffffffffffffffffffffffffff16815260200190815260200160002054605a61180c565b91506103e89050611306565b6112b16114ed565b600254106112be57600080fd5b600560008473ffffffffffffffffffffffffffffffffffffffff1673ffffffffffffffffffffffffffffffffffffffff1681526020019081526020016000205491506103e890505b5b5b5b5b5b5b5b915091565b60008054906101000a900473ffffffffffffffffffffffffffffffffffffffff1681565b60008054906101000a900473ffffffffffffffffffffffffffffffffffffffff1673ffffffffffffffffffffffffffffffffffffffff163373ffffffffffffffffffffffffffffffffffffffff161461138e57600080fd5b6113978261042d565b61149e5780600660008473ffffffffffffffffffffffffffffffffffffffff1673ffffffffffffffffffffffffffffffffffffffff168152602001908152602001600020600001819055506007829080600181540180825580915050600190039060005260206000200160009091909190916101000a81548173ffffffffffffffffffffffffffffffffffffffff021916908373ffffffffffffffffffffffffffffffffffffffff1602179055506001600780549050611457919061232a565b600660008473ffffffffffffffffffffffffffffffffffffffff1673ffffffffffffffffffffffffffffffffffffffff168152602001908152602001600020600101819055505b7fcb3de9106aa8cc3efea54defa4b3ec342e8ae23607fd0255b1dcee4813f9f4bc82826040516114cf929190611ff4565b60405180910390a15050565b60025481565b600081565b62278d0081565b6000600360009054906101000a900473ffffffffffffffffffffffffffffffffffffffff1673ffffffffffffffffffffffffffffffffffffffff166370a08231306040518263ffffffff1660e01b815260040161154a9190611fb0565b60206040518083038186803b15801561156257600080fd5b505afa158015611576573d6000803e3d6000fd5b505050506040513d601f19601f8201168201806040525081019061159a9190611e7f565b905090565b60008054906101000a900473ffffffffffffffffffffffffffffffffffffffff1673ffffffffffffffffffffffffffffffffffffffff163373ffffffffffffffffffffffffffffffffffffffff16146115f757600080fd5b600073ffffffffffffffffffffffffffffffffffffffff168173ffffffffffffffffffffffffffffffffffffffff16141561163157600080fd5b8073ffffffffffffffffffffffffffffffffffffffff1660008054906101000a900473ffffffffffffffffffffffffffffffffffffffff1673ffffffffffffffffffffffffffffffffffffffff167f8be0079c531659141344cd1fd0a4f28419497f9722a3daafe3b4186f6b6457e060405160405180910390a3806000806101000a81548173ffffffffffffffffffffffffffffffffffffffff021916908373ffffffffffffffffffffffffffffffffffffffff16021790555050565b600460009054906101000a900473ffffffffffffffffffffffffffffffffffffffff1681565b60015481565b60006002546117276114ed565b611731919061232a565b90506000811161174057600080fd5b6000600660008573ffffffffffffffffffffffffffffffffffffffff1673ffffffffffffffffffffffffffffffffffffffff168152602001908152602001600020600001549050600081116117ca576040517f08c379a00000000000000000000000000000000000000000000000000000000081526004016117c190612105565b60405180910390fd5b6000806117d884848761182e565b80925081935050506117ec868383886118ee565b505050505050565b600062278d008261180591906122d0565b9050919050565b60006064828461181c91906122d0565b611826919061229f565b905092915050565b6000806001808111156118445761184361250f565b5b8360018111156118575761185661250f565b5b14156118715783601461186a91906122d0565b9050611882565b8361c35061187f91906122d0565b90505b808510611891578391506118e6565b6001808111156118a4576118a361250f565b5b8360018111156118b7576118b661250f565b5b14156118d1576014856118ca919061229f565b91506118e2565b61c350856118df919061229f565b91505b8490505b935093915050565b60008311611931576040517f08c379a0000000000000000000000000000000000000000000000000000000008152600401611928906120a5565b60405180910390fd5b81600560008673ffffffffffffffffffffffffffffffffffffffff1673ffffffffffffffffffffffffffffffffffffffff1681526020019081526020016000205401600560008673ffffffffffffffffffffffffffffffffffffffff1673ffffffffffffffffffffffffffffffffffffffff168152602001908152602001600020819055506001808111156119c9576119c861250f565b5b8160018111156119dc576119db61250f565b5b1415611a9857600460009054906101000a900473ffffffffffffffffffffffffffffffffffffffff1673ffffffffffffffffffffffffffffffffffffffff1663e2bbb1588460016040518363ffffffff1660e01b8152600401611a40929190612169565b602060405180830381600087803b158015611a5a57600080fd5b505af1158015611a6e573d6000803e3d6000fd5b505050506040513d601f19601f82011682018060405250810190611a929190611e25565b50611b4a565b600460009054906101000a900473ffffffffffffffffffffffffffffffffffffffff1673ffffffffffffffffffffffffffffffffffffffff1663e2bbb1588460006040518363ffffffff1660e01b8152600401611af6929190612140565b602060405180830381600087803b158015611b1057600080fd5b505af1158015611b24573d6000803e3d6000fd5b505050506040513d601f19601f82011682018060405250810190611b489190611e25565b505b816002540160028190555050505050565b6000611b6e611b69846121e0565b6121bb565b90508083825260208201905082856020860282011115611b9157611b906125a1565b5b60005b85811015611bc15781611ba78882611c3b565b845260208401935060208301925050600181019050611b94565b5050509392505050565b6000611bde611bd98461220c565b6121bb565b90508083825260208201905082856020860282011115611c0157611c006125a1565b5b60005b85811015611c315781611c178882611cd6565b845260208401935060208301925050600181019050611c04565b5050509392505050565b600081359050611c4a81612679565b92915050565b600082601f830112611c6557611c6461259c565b5b8135611c75848260208601611b5b565b91505092915050565b600082601f830112611c9357611c9261259c565b5b8135611ca3848260208601611bcb565b91505092915050565b600081519050611cbb81612690565b92915050565b600081359050611cd0816126a7565b92915050565b600081359050611ce5816126b7565b92915050565b600081519050611cfa816126b7565b92915050565b600060208284031215611d1657611d156125ab565b5b6000611d2484828501611c3b565b91505092915050565b60008060408385031215611d4457611d436125ab565b5b6000611d5285828601611c3b565b9250506020611d6385828601611cc1565b9150509250929050565b60008060408385031215611d8457611d836125ab565b5b6000611d9285828601611c3b565b9250506020611da385828601611cd6565b9150509250929050565b60008060408385031215611dc457611dc36125ab565b5b600083013567ffffffffffffffff811115611de257611de16125a6565b5b611dee85828601611c50565b925050602083013567ffffffffffffffff811115611e0f57611e0e6125a6565b5b611e1b85828601611c7e565b9150509250929050565b600060208284031215611e3b57611e3a6125ab565b5b6000611e4984828501611cac565b91505092915050565b600060208284031215611e6857611e676125ab565b5b6000611e7684828501611cd6565b91505092915050565b600060208284031215611e9557611e946125ab565b5b6000611ea384828501611ceb565b91505092915050565b611eb58161235e565b82525050565b611ec481612370565b82525050565b611ed3816123b9565b82525050565b611ee2816123dd565b82525050565b611ef181612401565b82525050565b611f0081612413565b82525050565b611f0f81612425565b82525050565b6000611f22601883612238565b9150611f2d826125c1565b602082019050919050565b6000611f45601d83612238565b9150611f50826125ea565b602082019050919050565b6000611f68601583612238565b9150611f7382612613565b602082019050919050565b6000611f8b601783612238565b9150611f968261263c565b602082019050919050565b611faa816123af565b82525050565b6000602082019050611fc56000830184611eac565b92915050565b6000604082019050611fe06000830185611eac565b611fed6020830184611ee8565b9392505050565b60006040820190506120096000830185611eac565b6120166020830184611fa1565b9392505050565b60006060820190506120326000830186611eac565b61203f6020830185611fa1565b61204c6040830184611fa1565b949350505050565b60006020820190506120696000830184611ebb565b92915050565b60006020820190506120846000830184611eca565b92915050565b600060208201905061209f6000830184611ed9565b92915050565b600060208201905081810360008301526120be81611f15565b9050919050565b600060208201905081810360008301526120de81611f38565b9050919050565b600060208201905081810360008301526120fe81611f5b565b9050919050565b6000602082019050818103600083015261211e81611f7e565b9050919050565b600060208201905061213a6000830184611fa1565b92915050565b60006040820190506121556000830185611fa1565b6121626020830184611ef7565b9392505050565b600060408201905061217e6000830185611fa1565b61218b6020830184611f06565b9392505050565b60006040820190506121a76000830185611fa1565b6121b46020830184611fa1565b9392505050565b60006121c56121d6565b90506121d18282612437565b919050565b6000604051905090565b600067ffffffffffffffff8211156121fb576121fa61256d565b5b602082029050602081019050919050565b600067ffffffffffffffff8211156122275761222661256d565b5b602082029050602081019050919050565b600082825260208201905092915050565b6000612254826123af565b915061225f836123af565b9250827fffffffffffffffffffffffffffffffffffffffffffffffffffffffffffffffff03821115612294576122936124b1565b5b828201905092915050565b60006122aa826123af565b91506122b5836123af565b9250826122c5576122c46124e0565b5b828204905092915050565b60006122db826123af565b91506122e6836123af565b9250817fffffffffffffffffffffffffffffffffffffffffffffffffffffffffffffffff048311821515161561231f5761231e6124b1565b5b828202905092915050565b6000612335826123af565b9150612340836123af565b925082821015612353576123526124b1565b5b828203905092915050565b60006123698261238f565b9050919050565b60008115159050919050565b600081905061238a82612665565b919050565b600073ffffffffffffffffffffffffffffffffffffffff82169050919050565b6000819050919050565b60006123c4826123cb565b9050919050565b60006123d68261238f565b9050919050565b60006123e8826123ef565b9050919050565b60006123fa8261238f565b9050919050565b600061240c8261237c565b9050919050565b600061241e826123af565b9050919050565b6000612430826123af565b9050919050565b612440826125b0565b810181811067ffffffffffffffff8211171561245f5761245e61256d565b5b80604052505050565b6000612473826123af565b91507fffffffffffffffffffffffffffffffffffffffffffffffffffffffffffffffff8214156124a6576124a56124b1565b5b600182019050919050565b7f4e487b7100000000000000000000000000000000000000000000000000000000600052601160045260246000fd5b7f4e487b7100000000000000000000000000000000000000000000000000000000600052601260045260246000fd5b7f4e487b7100000000000000000000000000000000000000000000000000000000600052602160045260246000fd5b7f4e487b7100000000000000000000000000000000000000000000000000000000600052603260045260246000fd5b7f4e487b7100000000000000000000000000000000000000000000000000000000600052604160045260246000fd5b600080fd5b600080fd5b600080fd5b600080fd5b6000601f19601f8301169050919050565b7f54686520616d6f756e742063616e206e6f74207a65726f2e0000000000000000600082015250565b7f496e73756666696369656e7420746f6b656e20616c6c6f77616e63652e000000600082015250565b7f43616e2774206265207a65726f20616d6f756e742e0000000000000000000000600082015250565b7f596f7520616c72656164792068616420746f6b656e732e000000000000000000600082015250565b600281106126765761267561250f565b5b50565b6126828161235e565b811461268d57600080fd5b50565b61269981612370565b81146126a457600080fd5b50565b600281106126b457600080fd5b50565b6126c0816123af565b81146126cb57600080fd5b5056fea2646970667358221220d30152ba44f5b352cea7ff055c98c3966369a48b4f1134d30eea67579a4882b664736f6c63430008060033",
  "linkReferences": {},
  "deployedLinkReferences": {}
}